{
  "_format": "hh-sol-artifact-1",
  "contractName": "Document",
  "sourceName": "contracts/Document.sol",
  "abi": [
    {
      "inputs": [
        {
          "internalType": "string",
          "name": "_name",
          "type": "string"
        },
        {
          "internalType": "string",
          "name": "_description",
          "type": "string"
        },
        {
          "internalType": "string",
          "name": "_ipsf",
          "type": "string"
        },
        {
          "internalType": "address",
          "name": "_creator",
          "type": "address"
        },
        {
          "internalType": "string",
          "name": "ownerName",
          "type": "string"
        }
      ],
      "stateMutability": "nonpayable",
      "type": "constructor"
    },
    {
      "anonymous": false,
      "inputs": [
        {
          "indexed": false,
          "internalType": "address",
          "name": "signer",
          "type": "address"
        }
      ],
      "name": "signed",
      "type": "event"
    },
    {
      "inputs": [
        {
          "internalType": "string",
          "name": "signer_name",
          "type": "string"
        },
        {
          "internalType": "address",
          "name": "signer",
          "type": "address"
        },
        {
          "internalType": "address",
          "name": "sender",
          "type": "address"
        }
      ],
      "name": "addSigner",
      "outputs": [],
      "stateMutability": "nonpayable",
      "type": "function"
    },
    {
      "inputs": [
        {
          "internalType": "address",
          "name": "",
          "type": "address"
        }
      ],
      "name": "addressToAllowed",
      "outputs": [
        {
          "internalType": "bool",
          "name": "",
          "type": "bool"
        }
      ],
      "stateMutability": "view",
      "type": "function"
    },
    {
      "inputs": [
        {
          "internalType": "address",
          "name": "",
          "type": "address"
        }
      ],
      "name": "addressToSigned",
      "outputs": [
        {
          "internalType": "bool",
          "name": "",
          "type": "bool"
        }
      ],
      "stateMutability": "view",
      "type": "function"
    },
    {
      "inputs": [
        {
          "internalType": "address",
          "name": "",
          "type": "address"
        }
      ],
      "name": "addressToString",
      "outputs": [
        {
          "internalType": "string",
          "name": "",
          "type": "string"
        }
      ],
      "stateMutability": "view",
      "type": "function"
    },
    {
      "inputs": [
        {
          "internalType": "address",
          "name": "",
          "type": "address"
        }
      ],
      "name": "addressToTimeSigned",
      "outputs": [
        {
          "internalType": "uint256",
          "name": "",
          "type": "uint256"
        }
      ],
      "stateMutability": "view",
      "type": "function"
    },
    {
      "inputs": [
        {
          "internalType": "string",
          "name": "hash",
          "type": "string"
        }
      ],
      "name": "checkIntegrity",
      "outputs": [
        {
          "internalType": "bool",
          "name": "",
          "type": "bool"
        }
      ],
      "stateMutability": "view",
      "type": "function"
    },
    {
      "inputs": [],
      "name": "description",
      "outputs": [
        {
          "internalType": "string",
          "name": "",
          "type": "string"
        }
      ],
      "stateMutability": "view",
      "type": "function"
    },
    {
      "inputs": [],
      "name": "getSignersCount",
      "outputs": [
        {
          "internalType": "uint256",
          "name": "",
          "type": "uint256"
        }
      ],
      "stateMutability": "view",
      "type": "function"
    },
    {
      "inputs": [],
      "name": "name",
      "outputs": [
        {
          "internalType": "string",
          "name": "",
          "type": "string"
        }
      ],
      "stateMutability": "view",
      "type": "function"
    },
    {
      "inputs": [],
      "name": "owner",
      "outputs": [
        {
          "internalType": "address",
          "name": "",
          "type": "address"
        }
      ],
      "stateMutability": "view",
      "type": "function"
    },
    {
      "inputs": [],
      "name": "sign",
      "outputs": [],
      "stateMutability": "payable",
      "type": "function"
    },
    {
      "inputs": [
        {
          "internalType": "uint256",
          "name": "",
          "type": "uint256"
        }
      ],
      "name": "signers",
      "outputs": [
        {
          "internalType": "address",
          "name": "",
          "type": "address"
        }
      ],
      "stateMutability": "view",
      "type": "function"
    },
    {
      "inputs": [],
      "name": "timestamp",
      "outputs": [
        {
          "internalType": "uint256",
          "name": "",
          "type": "uint256"
        }
      ],
      "stateMutability": "view",
      "type": "function"
    }
  ],
  "bytecode": "0x60806040523480156200001157600080fd5b5060405162001dfc38038062001dfc8339818101604052810190620000379190620003fb565b816000806101000a81548173ffffffffffffffffffffffffffffffffffffffff021916908373ffffffffffffffffffffffffffffffffffffffff16021790555084600190816200008891906200074a565b5083600290816200009a91906200074a565b50600360008054906101000a900473ffffffffffffffffffffffffffffffffffffffff169080600181540180825580915050600190039060005260206000200160009091909190916101000a81548173ffffffffffffffffffffffffffffffffffffffff021916908373ffffffffffffffffffffffffffffffffffffffff160217905550600a6000815480929190620001339062000860565b919050555082600990816200014991906200074a565b5080600760008473ffffffffffffffffffffffffffffffffffffffff1673ffffffffffffffffffffffffffffffffffffffff16815260200190815260200160002090816200019891906200074a565b506001600460008473ffffffffffffffffffffffffffffffffffffffff1673ffffffffffffffffffffffffffffffffffffffff16815260200190815260200160002060006101000a81548160ff021916908315150217905550426008819055505050505050620008ad565b6000604051905090565b600080fd5b600080fd5b600080fd5b600080fd5b6000601f19601f8301169050919050565b7f4e487b7100000000000000000000000000000000000000000000000000000000600052604160045260246000fd5b6200026c8262000221565b810181811067ffffffffffffffff821117156200028e576200028d62000232565b5b80604052505050565b6000620002a362000203565b9050620002b1828262000261565b919050565b600067ffffffffffffffff821115620002d457620002d362000232565b5b620002df8262000221565b9050602081019050919050565b60005b838110156200030c578082015181840152602081019050620002ef565b60008484015250505050565b60006200032f6200032984620002b6565b62000297565b9050828152602081018484840111156200034e576200034d6200021c565b5b6200035b848285620002ec565b509392505050565b600082601f8301126200037b576200037a62000217565b5b81516200038d84826020860162000318565b91505092915050565b600073ffffffffffffffffffffffffffffffffffffffff82169050919050565b6000620003c38262000396565b9050919050565b620003d581620003b6565b8114620003e157600080fd5b50565b600081519050620003f581620003ca565b92915050565b600080600080600060a086880312156200041a57620004196200020d565b5b600086015167ffffffffffffffff8111156200043b576200043a62000212565b5b620004498882890162000363565b955050602086015167ffffffffffffffff8111156200046d576200046c62000212565b5b6200047b8882890162000363565b945050604086015167ffffffffffffffff8111156200049f576200049e62000212565b5b620004ad8882890162000363565b9350506060620004c088828901620003e4565b925050608086015167ffffffffffffffff811115620004e457620004e362000212565b5b620004f28882890162000363565b9150509295509295909350565b600081519050919050565b7f4e487b7100000000000000000000000000000000000000000000000000000000600052602260045260246000fd5b600060028204905060018216806200055257607f821691505b6020821081036200056857620005676200050a565b5b50919050565b60008190508160005260206000209050919050565b60006020601f8301049050919050565b600082821b905092915050565b600060088302620005d27fffffffffffffffffffffffffffffffffffffffffffffffffffffffffffffffff8262000593565b620005de868362000593565b95508019841693508086168417925050509392505050565b6000819050919050565b6000819050919050565b60006200062b620006256200061f84620005f6565b62000600565b620005f6565b9050919050565b6000819050919050565b62000647836200060a565b6200065f620006568262000632565b848454620005a0565b825550505050565b600090565b6200067662000667565b620006838184846200063c565b505050565b5b81811015620006ab576200069f6000826200066c565b60018101905062000689565b5050565b601f821115620006fa57620006c4816200056e565b620006cf8462000583565b81016020851015620006df578190505b620006f7620006ee8562000583565b83018262000688565b50505b505050565b600082821c905092915050565b60006200071f60001984600802620006ff565b1980831691505092915050565b60006200073a83836200070c565b9150826002028217905092915050565b6200075582620004ff565b67ffffffffffffffff81111562000771576200077062000232565b5b6200077d825462000539565b6200078a828285620006af565b600060209050601f831160018114620007c25760008415620007ad578287015190505b620007b985826200072c565b86555062000829565b601f198416620007d2866200056e565b60005b82811015620007fc57848901518255600182019150602085019450602081019050620007d5565b868310156200081c578489015162000818601f8916826200070c565b8355505b6001600288020188555050505b505050505050565b7f4e487b7100000000000000000000000000000000000000000000000000000000600052601160045260246000fd5b60006200086d82620005f6565b91507fffffffffffffffffffffffffffffffffffffffffffffffffffffffffffffffff8203620008a257620008a162000831565b5b600182019050919050565b61153f80620008bd6000396000f3fe6080604052600436106100c25760003560e01c80637284e4161161007f57806397290bc81161005957806397290bc814610283578063a0c1deb4146102ac578063b80777ea146102d7578063db0e335814610302576100c2565b80637284e416146101f05780638da5cb5b1461021b5780639646d3fc14610246576100c2565b806306fdde03146100c757806317ff5fbd146100f25780632079fb9a1461012f5780632ca151221461016c57806336659d37146101765780635e57966d146101b3575b600080fd5b3480156100d357600080fd5b506100dc61033f565b6040516100e99190610b3a565b60405180910390f35b3480156100fe57600080fd5b5061011960048036038101906101149190610bce565b6103cd565b6040516101269190610c16565b60405180910390f35b34801561013b57600080fd5b5061015660048036038101906101519190610c67565b6103ed565b6040516101639190610ca3565b60405180910390f35b61017461042c565b005b34801561018257600080fd5b5061019d60048036038101906101989190610df3565b61068e565b6040516101aa9190610c16565b60405180910390f35b3480156101bf57600080fd5b506101da60048036038101906101d59190610bce565b6106c7565b6040516101e79190610b3a565b60405180910390f35b3480156101fc57600080fd5b50610205610767565b6040516102129190610b3a565b60405180910390f35b34801561022757600080fd5b506102306107f5565b60405161023d9190610ca3565b60405180910390f35b34801561025257600080fd5b5061026d60048036038101906102689190610bce565b610819565b60405161027a9190610c16565b60405180910390f35b34801561028f57600080fd5b506102aa60048036038101906102a59190610e3c565b610839565b005b3480156102b857600080fd5b506102c1610a7f565b6040516102ce9190610eba565b60405180910390f35b3480156102e357600080fd5b506102ec610a8c565b6040516102f99190610eba565b60405180910390f35b34801561030e57600080fd5b5061032960048036038101906103249190610bce565b610a92565b6040516103369190610eba565b60405180910390f35b6001805461034c90610f04565b80601f016020809104026020016040519081016040528092919081815260200182805461037890610f04565b80156103c55780601f1061039a576101008083540402835291602001916103c5565b820191906000526020600020905b8154815290600101906020018083116103a857829003601f168201915b505050505081565b60046020528060005260406000206000915054906101000a900460ff1681565b600381815481106103fd57600080fd5b906000526020600020016000915054906101000a900473ffffffffffffffffffffffffffffffffffffffff1681565b3360011515600460008373ffffffffffffffffffffffffffffffffffffffff1673ffffffffffffffffffffffffffffffffffffffff16815260200190815260200160002060009054906101000a900460ff161515146104c0576040517f08c379a00000000000000000000000000000000000000000000000000000000081526004016104b790610f81565b60405180910390fd5b60011515600560008373ffffffffffffffffffffffffffffffffffffffff1673ffffffffffffffffffffffffffffffffffffffff16815260200190815260200160002060009054906101000a900460ff16151503610553576040517f08c379a000000000000000000000000000000000000000000000000000000000815260040161054a90610fed565b60405180910390fd5b60003490506001600560003373ffffffffffffffffffffffffffffffffffffffff1673ffffffffffffffffffffffffffffffffffffffff16815260200190815260200160002060006101000a81548160ff02191690831515021790555042600660003373ffffffffffffffffffffffffffffffffffffffff1673ffffffffffffffffffffffffffffffffffffffff16815260200190815260200160002081905550600a60008154809291906106079061103c565b91905055507f0555ff41484cef04cf22efe5c7f3294b7e1118a398ea397cfc7df1a06173a0e93360405161063b9190610ca3565b60405180910390a13373ffffffffffffffffffffffffffffffffffffffff166108fc829081150290604051600060405180830381858888f19350505050158015610689573d6000803e3d6000fd5b505050565b6000600960405161069f9190611108565b60405180910390208280519060200120036106bd57600190506106c2565b600090505b919050565b600760205280600052604060002060009150905080546106e690610f04565b80601f016020809104026020016040519081016040528092919081815260200182805461071290610f04565b801561075f5780601f106107345761010080835404028352916020019161075f565b820191906000526020600020905b81548152906001019060200180831161074257829003601f168201915b505050505081565b6002805461077490610f04565b80601f01602080910402602001604051908101604052809291908181526020018280546107a090610f04565b80156107ed5780601f106107c2576101008083540402835291602001916107ed565b820191906000526020600020905b8154815290600101906020018083116107d057829003601f168201915b505050505081565b60008054906101000a900473ffffffffffffffffffffffffffffffffffffffff1681565b60056020528060005260406000206000915054906101000a900460ff1681565b60008054906101000a900473ffffffffffffffffffffffffffffffffffffffff1673ffffffffffffffffffffffffffffffffffffffff168173ffffffffffffffffffffffffffffffffffffffff16146108c7576040517f08c379a00000000000000000000000000000000000000000000000000000000081526004016108be90611191565b60405180910390fd5b60011515600460008473ffffffffffffffffffffffffffffffffffffffff1673ffffffffffffffffffffffffffffffffffffffff16815260200190815260200160002060009054906101000a900460ff1615150361095a576040517f08c379a000000000000000000000000000000000000000000000000000000000815260040161095190611223565b60405180910390fd5b6003829080600181540180825580915050600190039060005260206000200160009091909190916101000a81548173ffffffffffffffffffffffffffffffffffffffff021916908373ffffffffffffffffffffffffffffffffffffffff160217905550600a60008154809291906109d090611243565b91905055506001600460008473ffffffffffffffffffffffffffffffffffffffff1673ffffffffffffffffffffffffffffffffffffffff16815260200190815260200160002060006101000a81548160ff02191690831515021790555082600760008473ffffffffffffffffffffffffffffffffffffffff1673ffffffffffffffffffffffffffffffffffffffff1681526020019081526020016000209081610a799190611437565b50505050565b6000600380549050905090565b60085481565b60066020528060005260406000206000915090505481565b600081519050919050565b600082825260208201905092915050565b60005b83811015610ae4578082015181840152602081019050610ac9565b60008484015250505050565b6000601f19601f8301169050919050565b6000610b0c82610aaa565b610b168185610ab5565b9350610b26818560208601610ac6565b610b2f81610af0565b840191505092915050565b60006020820190508181036000830152610b548184610b01565b905092915050565b6000604051905090565b600080fd5b600080fd5b600073ffffffffffffffffffffffffffffffffffffffff82169050919050565b6000610b9b82610b70565b9050919050565b610bab81610b90565b8114610bb657600080fd5b50565b600081359050610bc881610ba2565b92915050565b600060208284031215610be457610be3610b66565b5b6000610bf284828501610bb9565b91505092915050565b60008115159050919050565b610c1081610bfb565b82525050565b6000602082019050610c2b6000830184610c07565b92915050565b6000819050919050565b610c4481610c31565b8114610c4f57600080fd5b50565b600081359050610c6181610c3b565b92915050565b600060208284031215610c7d57610c7c610b66565b5b6000610c8b84828501610c52565b91505092915050565b610c9d81610b90565b82525050565b6000602082019050610cb86000830184610c94565b92915050565b600080fd5b600080fd5b7f4e487b7100000000000000000000000000000000000000000000000000000000600052604160045260246000fd5b610d0082610af0565b810181811067ffffffffffffffff82111715610d1f57610d1e610cc8565b5b80604052505050565b6000610d32610b5c565b9050610d3e8282610cf7565b919050565b600067ffffffffffffffff821115610d5e57610d5d610cc8565b5b610d6782610af0565b9050602081019050919050565b82818337600083830152505050565b6000610d96610d9184610d43565b610d28565b905082815260208101848484011115610db257610db1610cc3565b5b610dbd848285610d74565b509392505050565b600082601f830112610dda57610dd9610cbe565b5b8135610dea848260208601610d83565b91505092915050565b600060208284031215610e0957610e08610b66565b5b600082013567ffffffffffffffff811115610e2757610e26610b6b565b5b610e3384828501610dc5565b91505092915050565b600080600060608486031215610e5557610e54610b66565b5b600084013567ffffffffffffffff811115610e7357610e72610b6b565b5b610e7f86828701610dc5565b9350506020610e9086828701610bb9565b9250506040610ea186828701610bb9565b9150509250925092565b610eb481610c31565b82525050565b6000602082019050610ecf6000830184610eab565b92915050565b7f4e487b7100000000000000000000000000000000000000000000000000000000600052602260045260246000fd5b60006002820490506001821680610f1c57607f821691505b602082108103610f2f57610f2e610ed5565b5b50919050565b7f596f7520617265206e6f74207065726d6974656420746f207369676e00000000600082015250565b6000610f6b601c83610ab5565b9150610f7682610f35565b602082019050919050565b60006020820190508181036000830152610f9a81610f5e565b9050919050565b7f596f752061726520616c72656479207369676e65640000000000000000000000600082015250565b6000610fd7601583610ab5565b9150610fe282610fa1565b602082019050919050565b6000602082019050818103600083015261100681610fca565b9050919050565b7f4e487b7100000000000000000000000000000000000000000000000000000000600052601160045260246000fd5b600061104782610c31565b91506000820361105a5761105961100d565b5b600182039050919050565b600081905092915050565b60008190508160005260206000209050919050565b6000815461109281610f04565b61109c8186611065565b945060018216600081146110b757600181146110cc576110ff565b60ff19831686528115158202860193506110ff565b6110d585611070565b60005b838110156110f7578154818901526001820191506020810190506110d8565b838801955050505b50505092915050565b60006111148284611085565b915081905092915050565b7f596f752063616e27742067697665207065726d697373696f6e20746f20616e6f60008201527f7468657220636175736520796f757220617265206e6f74206f776e6572000000602082015250565b600061117b603d83610ab5565b91506111868261111f565b604082019050919050565b600060208201905081810360008301526111aa8161116e565b9050919050565b7f596f75206861766520616c6572616479207065726d697373696f6e20746f207360008201527f69676e207468697320646f630000000000000000000000000000000000000000602082015250565b600061120d602c83610ab5565b9150611218826111b1565b604082019050919050565b6000602082019050818103600083015261123c81611200565b9050919050565b600061124e82610c31565b91507fffffffffffffffffffffffffffffffffffffffffffffffffffffffffffffffff82036112805761127f61100d565b5b600182019050919050565b60008190508160005260206000209050919050565b60006020601f8301049050919050565b600082821b905092915050565b6000600883026112ed7fffffffffffffffffffffffffffffffffffffffffffffffffffffffffffffffff826112b0565b6112f786836112b0565b95508019841693508086168417925050509392505050565b6000819050919050565b600061133461132f61132a84610c31565b61130f565b610c31565b9050919050565b6000819050919050565b61134e83611319565b61136261135a8261133b565b8484546112bd565b825550505050565b600090565b61137761136a565b611382818484611345565b505050565b5b818110156113a65761139b60008261136f565b600181019050611388565b5050565b601f8211156113eb576113bc8161128b565b6113c5846112a0565b810160208510156113d4578190505b6113e86113e0856112a0565b830182611387565b50505b505050565b600082821c905092915050565b600061140e600019846008026113f0565b1980831691505092915050565b600061142783836113fd565b9150826002028217905092915050565b61144082610aaa565b67ffffffffffffffff81111561145957611458610cc8565b5b6114638254610f04565b61146e8282856113aa565b600060209050601f8311600181146114a1576000841561148f578287015190505b611499858261141b565b865550611501565b601f1984166114af8661128b565b60005b828110156114d7578489015182556001820191506020850194506020810190506114b2565b868310156114f457848901516114f0601f8916826113fd565b8355505b6001600288020188555050505b50505050505056fea2646970667358221220dc26b54ff6de6ca746a38ee6f7c22925882eabc3931e2416f8b4d444afc628d964736f6c63430008110033",
  "linkReferences": {},
  "deployedLinkReferences": {}
}